:10000000004000205D2100009D2100009F21000094
:1000100000000000000000000000000000000000E0
:10002000000000000000000000000000A12100000E
:100030000000000000000000A3210000A521000036
:10004000D50F0000FD3E0000A7210000A721000001
:10005000A721000000000000FD0B0000A721000008
:10006000A7210000A7210000894E0000091600000A
:10007000A7210000A7210000A7210000A721000060
:10008000A721000025160000A7210000A7210000DD
:1000900055420000A7210000A7210000A721000071
:1000A000A7210000A72100000000000000000000C0
:1000B0000000000000000000000000000000000040
:1000C00010B5064C2378002B07D1054B002B02D02E
:1000D000044800E000BF0123237010BD8800002009
:1000E00000000000A0500000044B10B5002B03D00E
:1000F0000349044800E000BF10BDC04600000000F6
:100100008C000020A0500000402292029A1A9246D1
:100110007047C046154B002B00D1114B9D46FFF791
:10012000F3FF00218B460F461148124A121A00F0C5
:100130007BF80C4B002B00D098470B4B002B00D0CA
:1001400098470020002104000D000B4800F016F82D
:1001500000F046F82000290000F014FD00F016F829
:100160000000080000000000000000000040002027
:1001700088000020D0060020B9010000002310B53F
:1001800001001A00180000F057F810BD084B10B518
:100190000400002B02D0002100F0B2F8054B1868D3
:1001A000836A002B00D09847200000F007F9C04672
:1001B00001030000E04F000070B5074D074C641BC1
:1001C000A410002C02D104F005FF70BD013CA30077
:1001D000EB589847F5E7C0468400002088000020CF
:1001E00070B500260C4D0D4C641BA410A64209D11D
:1001F000002604F0E9FE0A4D0A4C641BA410A64236
:1002000005D170BDB300EB5898470136EEE7B30057
:10021000EB5898470136F2E780000020800000206C
:10022000800000208400002003008218934200D147
:10023000704719700133F9E7F0B52C4D85B0060011
:10024000286802930091019200F0B4F8284B1C68D2
:10025000002C09D1274C1C60274B002B04D0220016
:100260001B6888320393136063681F2B06DD2868C0
:1002700000F0A2F80120404205B0F0BD002E29D0C8
:10028000270088373868002812D11C4B002B03D177
:10029000286800F090F8EDE78420400000E000BFFF
:1002A0000028F5D003000022FC335A609A603860C1
:1002B0006168019A8B00C31804C301228A40FC3094
:1002C0004168114341600299D967022E02D18368C7
:1002D0001A438260636828685A1C62600233009A7D
:1002E0009B001A5100F068F80020C5E7600000206C
:1002F00030010020A40000200000000000000000E9
:10030000F0B52A4B85B003901868019100F052F8BF
:10031000274B1C68002C05D1244B186800F04CF8C2
:1003200005B0F0BD2300656888336E1E1F68AD0000
:100330006519002EF0DB019B002B0BD0002F02D1A2
:10034000013E043DF5E73B00B20080339B58019A23
:100350009342F5D162686B68013AB24217D1666088
:10036000002BEDD062680292002F06D001223800E7
:10037000B240FC30416811420CD198470C4B626886
:1003800002991B688A42C3D19C42D9D0C0E700229F
:100390006A60E5E78068B1007958104202D103989D
:1003A0009847EBE708009847E8E7C0466000002060
:1003B000300100207047704770470000FEE7C046DC
:1003C00080B500AF00F036F8031E06D0134B144A78
:1003D0001A60144B802212021A6000F06BF8031EA0
:1003E00005D08023DA05C123DB000121D15000F0C4
:1003F00087F8031E0ED00C4B1B68012B07D00A4B4D
:100400000A4A1A60C046084B1B68012BFBD1084BF7
:10041000C0221A60C046BD4680BDC04604050040EB
:10042000DFFF07C0186C004000EC06407593000029
:1004300014EC064080B500AF1A4B1B68FF22134036
:10044000012B2AD1184B1B680F22134025D1174BC3
:100450001B68F022134006D1154B1B68F022134095
:1004600001D101231AE0114B1B68F0221340102B1D
:1004700006D10F4B1B68F022134001D101230DE080
:100480000A4B1B68F0221340302B06D1084B1B6827
:10049000F022134001D1012300E000231800BD46E3
:1004A00080BDC046E00F00F0E40F00F0E80F00F060
:1004B000EC0F00F080B500AF0D4B1B68FF2213401E
:1004C000012B11D10B4B1B680F2213400CD10A4B8F
:1004D0001B68F0221340402B06D1084B1B68F0220A
:1004E000134001D1012300E000231800BD4680BD68
:1004F000E00F00F0E40F00F0E80F00F0EC0F00F068
:1005000080B500AF144B1B68FF221340012B1ED196
:10051000124B1B680F22134019D1114B1B68F0229C
:100520001340A02B06D10F4B1B68F022134001D1C2
:1005300001230DE00A4B1B68F0221340D02B06D19B
:10054000084B1B68F022134001D1012300E0002377
:100550001800BD4680BDC046E00F00F0E40F00F07B
:10056000E80F00F0EC0F00F080B582B000AF0200A1
:10057000FB1D1A70FB1D1B781A001F231A40044B29
:10058000012191400A001A60C046BD4602B080BDFC
:1005900000E100E090B583B000AF78600C0010007F
:1005A0001900FB1C221C1A70BB1C021C1A707B1C3D
:1005B0000A1C1A70FB1C1A78BB1C1B785B001A43C0
:1005C0007B1C1B789B001A431823FB181B781B020B
:1005D0001A4311001C23FB181B781A04A023DB0507
:1005E00011437A68C132FF329200D150C046BD46F5
:1005F00003B090BD80B584B002AF78607868002306
:10060000019300230093002301220121FFF7C2FF81
:10061000C046BD4602B080BD80B584B002AF7860F0
:1006200008001100FB1C021C1A70BB1C0A1C1A706B
:10063000FB1C1A787868BB1C1B780193002300937D
:10064000130000220021FFF7A5FFC046BD4602B0FF
:1006500080BD80B582B000AF7860A023DA050121AB
:100660007B689940A123DB00D150C046BD4602B053
:1006700080BD000080B582B000AF7860A023DB05AC
:1006800001217A6891400A0002495A50C046BD468D
:1006900002B080BD0C05000080B500AF0222012130
:1006A0000320FFF7B9FF022201210420FFF7B4FF66
:1006B000022201210520FFF7AFFF022201210620BF
:1006C000FFF7AAFF022201210720FFF7A5FF022260
:1006D00001210920FFF7A0FF022201210A20FFF7D4
:1006E0009BFF0E20FFF786FF1120FFF783FF1220EC
:1006F000FFF780FF1320FFF77DFF0D20FFF77AFF44
:10070000C046BD4680BD90B585B000AF78600F246F
:100710003B1900221A700023BB607B681800FFF7AA
:1007200098FFA023DA05A223DB00D358BB6020008A
:100730003B181B78DB18D9B2BB68DB08DBB201229F
:100740001340DAB23B180A431A703B181B78DB18C7
:10075000D9B2BB681B09DBB201221340DAB23B18E5
:100760000A431A703B181B78DB18D9B2BB685B09C7
:10077000DBB201221340DAB23B180A431A703B186D
:100780001B78DB18D9B2BB689B09DBB2012213408E
:10079000DAB23B180A431A703B181B78DB18D9B23F
:1007A000BB68DB09DBB201221340DAB23B180A4313
:1007B0001A703B181B78DB18D9B2BB685B0ADBB236
:1007C00001221340DAB23B180A431A703B181B7817
:1007D000DB18D9B2BB689B0ADBB201221340DAB244
:1007E0003B180A431A703A1804003B181B78DB18B0
:1007F00013707B681800FFF73DFF3B191B7818004A
:10080000BD4605B090BD000080B500AF0E20FFF7DB
:100810007AFF03001A00104B1A701120FFF773FFC4
:1008200003001A000C4B5A701220FFF76CFF0300F4
:100830001A00094B9A701320FFF765FF03001A0096
:10084000054BDA700D20FFF75EFF03001A00024B24
:100850001A71C046BD4680BDB402002080B586B086
:1008600000AFF860B9607A6000237B610EE07B69BD
:10087000FA68D3181A787B69B968CB181B789A4242
:1008800001D0002307E07B6901337B617B697A68D3
:100890009A42ECD801231800BD4606B080BD000086
:1008A00080B582B000AF00237B600AE0094A7B6814
:1008B000D3181B78002B01D0002306E07B6801339E
:1008C0007B607B68042BF1DD01231800BD4602B07C
:1008D00080BDC046B402002080B582B000AF304B6E
:1008E0001B78DBB201225340DBB2002B4FD02C4BE4
:1008F00001221A702B4B3B6000237B600AE07B686F
:100900003A68D31828497A688A1812781A707B686E
:1009100001337B607B68042BF1DD224B214A2348A5
:10092000052100F0D9FE031E28D0204BDA69511CA6
:100930001E4BD9611B4B9A601D4B1A491D480A2258
:1009400001F012FB031E13D0164B1C2219000020CD
:1009500001F04DFC031E05D0174B1B685A1C164BAB
:100960001A6010E0154B1B685A1C144B1A600AE001
:10097000134B1B685A1C124B1A6004E0114B1B6886
:100980005A1C104B1A60064B00221A7004E00E4BE2
:100990001B685A1C0C4B1A60C046BD4602B080BD95
:1009A0007C02002038010020A402002074010020F5
:1009B00044010020A40100208402002088020020BD
:1009C00094020020900200208C02002080B582B0AA
:1009D00000AF0200FB1D1A70FFF77EFFC046BD4648
:1009E00002B080BD80B584B000AF0200FB1D1A705C
:1009F000FFF70AFF404B1B78DBB2002B29D03F49A1
:100A00003F4B05221800FFF729FF031E1DD03D4B69
:100A10001B685A1C3B4B1A603A4B1B68052B3DD197
:100A20000023FB600BE0364AFB68D3181978364A7E
:100A3000FB68D3180A1C1A70FB680133FB60FB6863
:100A4000042BF0DDFFF748FF28E02B4B00221A7043
:100A500024E02A492C4B05221800FFF7FFFE030073
:100A60001A0001235340DBB2002B17D00023BB60D8
:100A70000BE0224ABB68D3181978214ABB68D31807
:100A80000A1C1A70BB680133BB60BB68042BF0DD25
:100A9000194B01221A701B4B00221A60FFF700FF4E
:100AA000031E22D0194B1B685A1C184B1A60174B97
:100AB0001A68FA235B009A421AD9154B180000F005
:100AC000C5FC144B180000F0C1FC0E20FFF7C1FD5F
:100AD0001120FFF7BEFD1220FFF7BBFD1320FFF72B
:100AE000B8FD0D20FFF7B5FD02E0084B00221A60AB
:100AF000C046BD4604B080BDC4020020B402002040
:100B0000AC020020BC020020A4020020C002002091
:100B1000E44F0000EC4F000080B500AF00F0B0F9EA
:100B2000002000F007FAC046BD4680BD80B500AF8A
:100B3000104A114B0021180000F002FC0F4A104B24
:100B40000021180000F0FCFB0B4B0121180000F005
:100B500097FC0B4B0121180000F092FC064B18008B
:100B600000F05AFC064B180000F056FCC046BD468B
:100B700080BDC046CD090000E44F0000E50900003B
:100B8000EC4F000080B500AF002001F039FE64207A
:100B900001F0E0FD144B180001F08EFC134B18001F
:100BA00001F0A2FC01F000FBFFF7B6FFFFF7BEFF6C
:100BB000FFF772FD0E49C1239B0080221206CA5026
:100BC0000620FFF7D1FC0B4B0121180001F0B0FA11
:100BD000094B0221180001F0ABFA40BFC04620BF0C
:100BE000C04620BFC046F8E7040302010807060517
:100BF0000060004074010020F801002080B500AFC3
:100C00000C4ABE235B00D358002B0FD0094ABE23E9
:100C10005B000021D150084B180000F0FDFB074B92
:100C2000180000F0F9FB064B00221A60C046BD46D2
:100C300080BDC04600600040E44F0000EC4F000063
:100C4000C002002090B58BB000AFF8603B1D19606A
:100C50005A6020237B62FB68002B54D13B1D1B781C
:100C6000002B3DD02423FA182949FB68180001F015
:100C700001FB14243B1926492648102201F074F97F
:100C800025493B191022180004F086F9031E22D1D1
:100C9000224B1B685A1C214B1A601D4BDB7B1A0030
:100CA0001F4BDA613B191A4A1D480F2100F014FD51
:100CB000031E0AD0164BDA7B1A4B5A713A191A489E
:100CC0000F23012101F07AF90AE0184B1B685A1C26
:100CD000164B1A6004E0164B1B685A1C144B1A6022
:100CE0003B1D5A88134B1B889A4203D93B1D5A88D7
:100CF000104B1A803B1D5B881A000F4B1B68D218E3
:100D00000D4B1A6000E0C046BD460BB090BDC0461A
:100D100054010020280200206401002098020020D5
:100D2000F80100203801002074010020A0020020FA
:100D30009C0200207E0200208002002080B584B04A
:100D400000AFF8603B1D19605A60C046BD4604B054
:100D500080BD80B582B000AF78603B001960C046AE
:100D6000BD4602B080BD80B500AFC046BD4680BD67
:100D700080B582B000AF78608023DA05C1239B0084
:100D80007968D150C046BD4602B080BD80B582B002
:100D900000AF78608023DA05C2239B007968D150C8
:100DA000C046BD4602B080BD80B582B000AF020033
:100DB000FB1D1A70FB1D1B788022D20594466344EC
:100DC00001221A60C046BD4602B080BD80B582B027
:100DD00000AF0200BB1D1A80BB1D1B888022D205FC
:100DE0009446634400221A60C046BD4602B080BDEE
:100DF00080B582B000AF0200BB1D1A80BB1D1B88EE
:100E00008022D205944663441B685A1E9341DBB28C
:100E10001800BD4602B080BD80B582B000AF0200B0
:100E2000FB1D1A70FB1D1B788022D205032119407F
:100E3000A323DB00D150C046BD4602B080BD80B5C3
:100E400082B000AF0200FB1D1A708023DA05FB1D83
:100E50001978AA23DB00D150C046BD4602B080BD40
:100E600080B500AF82235B001800FFF7AFFF0220C0
:100E7000FFF77EFF0820FFF797FFC046BD4680BD05
:100E800080B582B000AF00237B60124B1B7A002B31
:100E900001D0852319E00F4B00225A600D4B002230
:100EA0001A600C4B00221A610A4B0022DA60FF2004
:100EB000FFF7C5FF0120FFF7AFFF0321002000F07F
:100EC00095F9044B01221A727B681800BD4602B0E6
:100ED00080BDC046C802002080B582B000AF7860F7
:100EE00039607B681B68002B07D07B681A683B68F9
:100EF0001A607B683A681A6005E03B6800221A6055
:100F00007B683A681A60C046BD4602B080BD80B5B5
:100F100084B000AF78607B681B68FB60FB68002BC7
:100F200003D0FB681A687B681A60FB681800BD462E
:100F300004B080BD80B582B000AF7860002000F0C2
:100F4000A3F8144B9B7ADBB2002B07D07B68002BF5
:100F500013D07B685B68012098470EE07B68002B0C
:100F600005D07A680C4B11001800FFF7B5FF094B4C
:100F7000DB68002B01D1FFF773FF064BDB685A1CBF
:100F8000044BDA60002000F089F8C046BD4602B08C
:100F900080BDC046C8020020D802002080B584B0C1
:100FA00000AF78600A00FB1C1A707B681800FFF71E
:100FB000AEFF0300FB60FB68002B06D0FB685B689C
:100FC000FA1C127810009847EFE7C046C046BD46AD
:100FD00004B080BD80B500AF80235B001800FFF730
:100FE00007FF031E0FD080235B001800FFF7EEFE03
:100FF0000120FFF7CBFE114B01225A72104B00214A
:101000001800FFF7CBFF82235B001800FFF7F0FE0C
:10101000031E0FD082235B001800FFF7D7FE0220CB
:10102000FFF7B4FE054B01229A72064B012118000E
:10103000FFF7B4FFC046BD4680BDC046C8020020D1
:10104000CC020020D802002080B500AF72B6C046A6
:10105000034B1B685A1C024B1A60C046BD4680BD3C
:10106000DC02002080B500AF064B1B685A1E054B02
:101070001A60044B1B68002B01D162B6C046C04603
:10108000BD4680BDDC02002080B582B000AF786034
:10109000FFF7DAFFC046BD4602B080BD80B582B022
:1010A00000AF0200FB1D1A70FFF7DCFFC046BD4613
:1010B00002B080BD80B582B000AF0200FB1D1A7087
:1010C000FB1D1B781A001F231A40044B012191407D
:1010D0000A001A60C046BD4602B080BD00E100E0D3
:1010E00080B582B000AF0200FB1D1A70FB1D1B789B
:1010F0001A001F231340054901229A40C0235B00B8
:10110000CA50C046BD4602B080BDC04600E100E006
:1011100090B583B000AF02003960FB1D1A70FB1D53
:101120001B787F2B32D92F4AFB1D1B7819000F2308
:101130000B40083B9B0806339B00D31804331B6805
:10114000FA1D1278110003220A40D200FF219140BB
:101150000A00D2431A4011003B689B01FF221A404B
:10116000FB1D1B78180003230340DB009A401D4839
:10117000FB1D1B781C000F232340083B9B080A43E0
:1011800006339B00C31804331A6027E0164AFB1D80
:101190001B785BB29B08C0339B009B58FA1D1278EA
:1011A000110003220A40D200FF2191400A00D243DD
:1011B0001A4011003B689B01FF221A40FB1D1B785F
:1011C000180003230340DB009A400748FB1D1B78EF
:1011D0005BB29B080A43C0339B001A50C046BD4611
:1011E00003B090BD00ED00E000E100E080B582B00A
:1011F00000AF0200FB1D1A70BB1D0A1C1A70BB1D3C
:101200001A78FB1D1B785BB211001800FFF780FFF6
:10121000FB1D1B785BB21800FFF762FFFB1D1B78FC
:101220005BB21800FFF746FFC046BD4602B080BD66
:1012300080B582B000AF786039607A68C1239B00C6
:101240003968D150C046BD4602B080BD80B582B07D
:1012500000AF786039607A68C2239B003968D1504A
:10126000C046BD4602B080BD80B582B000AF786098
:1012700039607A68C1239B00D3583A68134018003C
:10128000BD4602B080BD80B582B000AF78600A0074
:10129000BB1C1A80BB1C1B887A68D3181B681800FB
:1012A000BD4602B080BD80B582B000AF78600A0054
:1012B000BB1C1A80BB1C1B887A68D31800221A60DA
:1012C000C046BD4602B080BD80B582B000AF786038
:1012D00039607A68A123DB003968D150C046BD4629
:1012E00002B080BD80B582B000AF78600A00FB1C00
:1012F0001A70FB1C1A787B68D31801221A60C0464A
:10130000BD4602B080BD80B582B000AF7860396064
:101310007A68D1239B003968D150C046BD4602B0DF
:1013200080BD80B582B000AF786039607A68D22322
:101330009B003968D150C046BD4602B080BD000058
:1013400080B584B000AFF860B9607A607B68002B2C
:101350000AD0FB685B791A002C4B92007968D15057
:10136000BB68002B0CD101E007234AE0FB685B79E6
:101370001A0013005B009B185B00254A9B18BB609A
:10138000FB685B791900234A0B005B005B189B5CD0
:10139000002B01D0082334E0FB6804229A56BB6876
:1013A0009B7819001000FFF721FFFB681A68BB68E3
:1013B0001B8819001000FFF787FFFB685B79190095
:1013C000BB681879134A0B005B005B18D318013314
:1013D000021C1A70FB685B791900BB68D8780D4A4B
:1013E0000B005B005B18D3180233021C1A70FB68F9
:1013F0005B791900074A0B005B005B1801219954C7
:1014000000231800BD4604B080BDC046E0020020A5
:10141000F44F0000E802002080B582B000AF786091
:101420007B681B6800211800FFF75CFF7B685B7915
:101430001900054A0B005B005B1802219954C04655
:10144000BD4602B080BDC046E802002080B582B033
:1014500000AF78607B681B6804211800FFF742FF2B
:101460007B685B791900054A0B005B005B18012162
:101470009954C046BD4602B080BDC046E802002077
:1014800080B584B000AF78600A00FB1C1A700E2192
:101490007B18802252001A800123BB607B681A6887
:1014A0007B181B8819001000FFF7FDFE7B681B6886
:1014B000BA6811001800FFF726FFFB1C1B78002BF1
:1014C00006D07B681B68BA6811001800FFF7B0FEF1
:1014D000C046BD4604B080BD90B589B000AFF8608D
:1014E000B9607A6080235B02BB611623FB18A022DF
:1014F00052001A800023FB6138E0BA69FB681100D2
:101500001800FFF7B1FE031E24D016243B191A88D9
:10151000FB6811001800FFF7B6FE031E1AD0BA6967
:10152000FB6811001800FFF7FCFEBA69FB681100A8
:101530001800FFF78BFE3B191A88FB681100180092
:10154000FFF7B1FE2F4BBA689200D358FA69D2B2B6
:1015500010009847BB695B00BB611622BB18BA1824
:10156000128804321A80FB690133FB61FA697B68D7
:101570009A42C2D316243B19802252001A80FB687B
:1015800001211800FFF770FE031E15D03B191A88C1
:10159000FB6811001800FFF776FE031E0CD03B1904
:1015A0001A88FB6811001800FFF77DFE154BBA681A
:1015B0009200D3580420984716243B1982225200E7
:1015C0001A80FB6802211800FFF74EFE031E15D09B
:1015D0003B191A88FB6811001800FFF754FE031E20
:1015E0000CD03B191A88FB6811001800FFF75BFE4E
:1015F000044BBA689200D35805209847C046BD46B0
:1016000009B090BDE002002080B500AF044B042279
:1016100000211800FFF760FFC046BD4680BDC046F0
:1016200000B0004080B500AF044B04220121180037
:10163000FFF752FFC046BD4680BDC04600100140C6
:1016400080B586B000AFF860B9607A603B60002377
:101650007B6112E07B69FA68D31819687B69BA6804
:10166000D3181A687B693868C3184A401A607B69C6
:1016700004337B617B68043B7B607B68032BE9D888
:101680007B68012B13D97B69FA68D31819887B69A9
:10169000BA68D3181A887B693868C3184A4092B26E
:1016A0001A807B6902337B617B68023B7B607B68CD
:1016B000002B0DD07B69FA68D31819787B69BA685A
:1016C000D3181A787B693868C3184A40D2B21A70A6
:1016D000C046BD4606B080BD80B584B000AFF8609E
:1016E000B9607A603B60BB68102B01D9002315E01C
:1016F000FB68180000F02CF803001A000123534087
:10170000DBB2002B01D0002308E0FB682033190076
:101710003B68BA687868FFF793FF01231800BD465D
:1017200004B080BD80B582B000AF78607B68002BCC
:1017300001D1002304E004497B68044A8B50012353
:101740001800BD4602B080BD00E000400405000066
:1017500080B584B000AF78607B68002B01D1002396
:101760004DE0294A294BD2587B689A4203D026493A
:101770007B68264A8B5080235B04FB60224A8223CD
:101780005B000021D150204A80235B000021D15012
:101790001D4B01221A6007E0FB68013BFB60FB6800
:1017A000002B01D100232AE0174A80235B00D25886
:1017B000154982235B00CB581343EDD0144B1B68B3
:1017C0005A1C134B1A60134B1A68FB68D31A8022F9
:1017D00052049A180F4B1A600B4A80235B000021B9
:1017E000D150094A82235B00D358002B06D0064A09
:1017F00082235B000021D150002300E00123180068
:10180000BD4604B080BDC04600E0004004050000B5
:10181000F4020020F002002080B59AB000AFF8601A
:10182000B9607A603B603A6879681423FB18180045
:1018300000F0B5F903001A0001235340DBB2002B7E
:1018400001D0002307E03B6FBA68F968142038180C
:1018500000F08AFB03001800BD461AB080BDF0B549
:10186000A1B000AFF860B9607A603B607C23FB18E0
:1018700000221A808C2308229B1808229446BC441C
:1018800063441A68FF231B019A4201D90023DBE05D
:101890008C2108200B1808229446BC4463441B6822
:1018A0000F2213400CD00B1808229446BC4463440A
:1018B0001B681B09DAB27F23FB1801321A700BE098
:1018C0008C2308229B1808229446BC4463441B685E
:1018D0001A097F23FB181A701723FB1801221A70AC
:1018E000A4E0BA68F9682823FB18180000F057F93B
:1018F00003001A0001235340DBB2002B01D0002368
:10190000A2E01723FB181B78012B10D91823F91814
:101910002823FB181022180000F0CDF903001A004C
:1019200001235340DBB2002B01D000238CE03A6846
:1019300079682823FB18180000F0BDF903001A008D
:1019400001235340DBB2002B01D000237CE017239E
:10195000F9182823FB180122180000F0ACF9030045
:101960001A0001235340DBB2002B01D000236BE0AF
:101970001823FA182823FB181100180000F04DFA5C
:1019800003001A0001235340DBB2002B01D00023D7
:101990005AE08C240826A31908229446BC446344C8
:1019A0001B68102B23D97C257B191B888822921950
:1019B00008218C46BC4462441268D3181822B91816
:1019C0001022180003F0F6FAA31908229446BC442A
:1019D00063441B68103BA21908218C46BC44624436
:1019E00013607B197A19128810321A8017E07C2351
:1019F000FB181B8888220821521808208446BC4402
:101A000062441268D3188C22521808218C46BC44B8
:101A10006244126818217918180003F0CBFA1721D4
:101A20007B181B780133DAB27B181A7017217B18E8
:101A30001B787F22BA1812789A4204D37B181B783D
:101A4000002B00D04DE701231800BD4621B0F0BDAA
:101A500080B584B000AF786039600023FB600F234D
:101A6000BB6024E0BB687A68D3181978BB683A6811
:101A7000D2180B1CDB18DBB21370BB683A68D318A2
:101A80001978FB68DAB2BB683868C3180A43D2B267
:101A90001A70BB687A68D3181B785BB2DB115BB233
:101AA0001A0001231340FB60BB68013BBB60BB68AD
:101AB000002BD7DAC046C046BD4604B080BD80B515
:101AC00086B000AFF860B9607A6000237B6112E0F5
:101AD0007B699B00FA68D31819687B699B00BA6818
:101AE000D3181A687B699B007868C3184A401A604B
:101AF0007B6901337B617B69032BE9DDC046C0460E
:101B0000BD4606B080BD80B586B000AFF860B96054
:101B10007A603B6000237B6112E07B69FA68D3182E
:101B200019687B69BA68D3181A687B693868C31862
:101B30004A401A607B6904337B617B68043B7B60AD
:101B40007B68032BE9D87B68012B13D97B69FA6882
:101B5000D31819887B69BA68D3181A887B693868E2
:101B6000C3184A4092B21A807B6902337B617B685A
:101B7000023B7B607B68002B0DD07B69FA68D31831
:101B800019787B69BA68D3181A787B693868C318E2
:101B90004A40D2B21A70C046BD4606B080BD80B57C
:101BA00088B000AFF860B9607A607B680F2B2CD8E2
:101BB0007B681022D31A7B610023FB6109E0FA687D
:101BC0002021FB69D3185B1800221A70FB690133CE
:101BD000FB61FA697B699A42F1D30023BB6110E093
:101BE000BA68BB69D3181878FA682021FB69D31842
:101BF0005B18021C1A70FB690133FB61BB6901337E
:101C0000BB61FB690F2BEBD906E0FB682033B96899
:101C10001022180003F0CEF9FB68303310220021A7
:101C20001800FEF701FBFB685022995C01208143FC
:101C30009954FB685022995C3E2081439954FB687B
:101C400020331800FFF784FD03001A0001235340DE
:101C5000DBB2002B01D0002329E0FB684033FA6897
:101C600011001800FFF7F4FEFB6840229B5C5BB29A
:101C7000002B07DAFB68DB7B792252425340DAB251
:101C8000FB68DA73FA68FB68103319001000FFF77D
:101C9000DFFEFB681B785BB2002B07DAFB68DB7F9B
:101CA000792252425340DAB2FB68DA7701231800F6
:101CB000BD4608B080BD90B587B000AFF860B96090
:101CC0007A60FB6850229B5C9B06DB0EDBB21A003D
:101CD00010239B1A7B617B697A689A422BD8FB6838
:101CE0003033FA685021525C9206D20ED2B29B1861
:101CF0007A68B968180003F05DF9FB6850229B5CB4
:101D00009B06DB0EDBB21A007B68DBB2D318DBB2BA
:101D10001A1C1F231340D9B2FB6850221F20014018
:101D20004C18995C3E208143081C211C01439954A6
:101D300000237B6030E0FB683033FA685021525C4E
:101D40009206D20ED2B29B187A69B968180003F0D5
:101D500031F9FB6850229B5C9B06DB0EDBB21A005C
:101D60007B69DBB2D318DBB21A1C1F231340D9B234
:101D7000FB6850221F2001404C18995C3E20814393
:101D8000081C211C014399547B69BA68D318BB60B5
:101D90007B697A68D31A7B60FB6850229B5C3E2289
:101DA0001340DBB2202B2FD17B68002B2CD0FB689B
:101DB00050229B5C01221340DBB2002B0AD0FB684F
:101DC00040331800FB6830331900FB6830331A00C9
:101DD000FFF775FEFB6820331800FFF7B9FC03001E
:101DE0001A0001235340DBB2002B01D0002310E086
:101DF000FB685022995C012001439954FB685022F2
:101E0000995C3E20814399547B68002B00D058E7B1
:101E100001231800BD4607B090BD80B582B000AF69
:101E2000786039607B6850229B5C3E221340DBB2B5
:101E3000202B09D17B683033180079687B683033F8
:101E40001A00FFF73CFE55E07B68303318007B68D2
:101E5000103319007B6850229B5C9B06DB0EDBB2C3
:101E60001A007B683033FFF74EFE7B6850229B5C84
:101E70009B06DB0EDBB21A007B689B181B7C7A6822
:101E80005021525C9206D20ED2B2100080225242F1
:101E90005340D9B27B6830221B189B180A1C1A7059
:101EA0007B6850229B5C9B06DB0EDBB20E2B21D89D
:101EB0007B6830331A007B6850215B5C9B06DB0E2D
:101EC000DBB20133D0187B6810331A007B685021D5
:101ED0005B5C9B06DB0EDBB20133D1187B685022C2
:101EE0009B5C9B06DB0EDBB21A000F239B1A1A00C9
:101EF00003F060F87B6850229B5C01221340DBB248
:101F0000002B0AD07B68303318007B6840331900FF
:101F10007B6830331A00FFF7D2FD7B68203318004E
:101F2000FFF716FC03001A0001235340DBB2002B1D
:101F300001D0002314E07B685022995C012081438A
:101F400099547B685022995C3E20814399547B6868
:101F5000403319003B681022180003F02BF80123CE
:101F60001800BD4602B080BD80B584B000AFF860F7
:101F7000B9607A603B607A68B968FB681800FFF75F
:101F80009AFE03001A0001235340DBB2002B01D05C
:101F900000230FE03A68FB6811001800FFF73DFFCF
:101FA00003001A0001235340DBB2002B01D00023B1
:101FB00000E001231800BD4604B080BDF0B59BB021
:101FC00002AFF8607A603B600B203B180A1C1A7065
:101FD0005723FB1801221A703B181B78022B0FD0D5
:101FE00013DC002B02D0012B05D00EE04A4BFB6521
:101FF0001023BB650BE0494BFB651023BB6506E076
:10200000474BFB651023BB6501E000237FE05726AB
:10201000BC19BD6DFA6D396878684423FB180093CC
:102020002B00FFF7F9FB0300237031007B181B78AE
:1020300001225340DBB2002B02D07B181B7866E0F4
:10204000FB6857257C19374A4421781810210191E3
:1020500000930F231021FFF702FC030023702900D7
:102060007B181B7801225340DBB2002B02D07B1877
:102070001B784CE0FB68103357257C192A4A442111
:10208000781810210191009311231021FFF7E7FB2D
:102090000300237029007B181B7801225340DBB218
:1020A000002B02D07B181B7831E0FB680022DA613C
:1020B00057257C191D4A44217818102301937B1859
:1020C000009308231021FFF7CAFB030023707B193C
:1020D0001B7801225340DBB2002B02D07B191B7806
:1020E00015E0FB6830334422B91810221800FFF7BE
:1020F00056FD03001A0001235340DBB2002B01D030
:10210000002304E0FB681800FFF70CFB0300180035
:10211000BD4619B0F0BDC0462C5000003C50000038
:102120004C500000005000001050000024500000EF
:1021300080B586B000AF78600A00FB1C1A70064AB2
:10214000FB1C197878681023FFF738FF030018008C
:10215000BD4606B080BDC0465C50000003210A4861
:1021600002680A430260094802680A43026008499B
:10217000084A094B9B1A03DD043BC858D050FBDCCE
:10218000FEF71EF9FDF7C6FF240500405405004088
:10219000AC5000000000002088000020FEE7FEE7B1
:1021A000FEE7FEE7FEE7FEE708B5064B18680028E5
:1021B00003D1054902220A7002E001F049F9012029
:1021C00008BDC046F802002038030020014B186803
:1021D000407E7047F802002008B500F011FE00288C
:1021E00002D100F0F8FD01E0FEF7BDFD08BDF8B535
:1021F000051C0F1C161C072804D904221B4E0020A6
:10220000327031E003220029F8D00622202EF5D8C2
:1022100000F04CFE09220228F0D8281C00F04AFEEB
:102220000A220228EAD800F049FE08220128E5D94E
:1022300000F0F4FD4378041C067001200343637032
:10224000391C321CA01C02F0B5FEE8B2211C00F0C3
:10225000F9FD051C0120002D06D1054802F0CAFA3F
:10226000024F0F213970281CF8BDC04638030020EA
:10227000DD000500F8B5061C0D1C171C00F01AFE49
:10228000002803D1154F0B253D7025E00322002DBA
:1022900007D0301C00F0FCFD3A6803789A4204D263
:1022A00006220E4E0020327016E0301C00F0E6FDD3
:1022B000041E0AD00278811C3A60281C02F07AFEC3
:1022C000201C00F0B5FD012006E0054802F092FA5E
:1022D00002490F200870201CF8BDC04638030020BA
:1022E0000501050008B5072804D9044B04221A701B
:1022F000002001E000F0DAFD08BDC04638030020F0
:1023000008B5072805D9044B042201201A70404261
:1023100001E000F0CFFD08BD3803002008B500F053
:10232000CDFD0623181A08BD10B5041E072C03D9CD
:102330000B4B04241C7003E0FFF7D4FF022801DDDF
:1023400000200CE0201CFFF7DBFF0228F8DCFFF781
:10235000E5FF0623181A012181429241504210BD27
:102360003803002008B50A4B19684A7E002A04D0B9
:10237000084A0C211170002009E0072803D9054BF9
:1023800004201870F7E7C0B200F09CFD012008BDE2
:10239000F80200203803002008B5072804D9054BAF
:1023A00004221A70002003E0C0B200F0A5FD012055
:1023B00008BDC0463803002010B501280AD0002807
:1023C00003D0022808D1002000E0012001F028F805
:1023D000012005E00220F9E7024B05221A700020D7
:1023E00010BDC0463803002010B500F011FD0128D3
:1023F0000AD00224002808D0A04201D1012404E020
:10240000034802F0F7F900E00024201C10BDC0468C
:102410007001050038B5134A031C10680C1C407E7F
:10242000002804D0104D02202870002018E0013947
:102430000F2903D90C4907220A7011E0002B03D1A0
:10244000094C03232370F0E7084D191C10C5221C0A
:10245000281C02F0AFFD281C211C00F0BDFD01204E
:1024600038BDC046F8020020380300206400002078
:102470000C4B10B51A680C68944201D3102C04D987
:10248000094C0720207000200AE0002803D10649EB
:1024900003220A7004E00A60191D02F08BFD01207E
:1024A00010BDC0466400002038030020014B1868AE
:1024B0007047C0466400002008B5074B19684A7E83
:1024C000002A04D0054B02201870002002E000F022
:1024D0001DFD012008BDC046F80200203803002081
:1024E00008B500F023FD08BD08B5074B19684A7E02
:1024F000002A04D0054B02201870002002E000F0F2
:102500001BFD012008BDC046F80200203803002052
:1025100008B500F01FFD08BD08B50A4B1A68537EC8
:10252000002B04D0084B02221A70002008E0072874
:1025300003D9054804210170F7E700F011FD0120DF
:1025400008BDC046F80200203803002010B50C1C5E
:10255000072804D90422064B00201A7006E0032243
:102560000029F8D000F028FD2070012010BDC046E1
:102570003803002008B5074B19684A7E002A04D0AA
:10258000054B02201870002002E000F065FD0120DC
:1025900008BDC046F80200203803002008B500F04E
:1025A00061FD08BD08B50E4A031C1068407E002876
:1025B00004D00C480222027000200FE0012B0AD048
:1025C000002B07D0022B01D1012004E0054B0E2186
:1025D000197003E0022000F0DDFD012008BDC046B7
:1025E000F80200203803002008B501F023F800218C
:1025F000012801D8014B195C081C08BD6C50000073
:1026000008B5134B19684A7E002A04D0114A0221EA
:10261000117000201BE006280FD802F06BFC12148A
:102620000406080A0C00FC200EE0F8200CE0F42060
:102630000AE0F02008E0EC2006E0064B0E201870BF
:10264000E7E7042000E0002000F046FD012008BD7F
:10265000F80200203803002008B500F04BFDF028F8
:1026600013D004D8042814D0EC2806D10FE0F828A1
:1026700007D0FC2803D0F42805D001200AE002206E
:1026800008E0032006E0042004E0052002E0062024
:1026900000E0002008BD08B5064B19684A7E002AF4
:1026A00004D0054B02201870002002E000F0E0FC8E
:1026B000012008BDF80200203803002008B500F012
:1026C000DDFC08BD08B5074B19684A7E002A04D016
:1026D000054B02201870002002E000F097FC01205A
:1026E00008BDC046F80200203803002008B500F0FD
:1026F00093FC08BD08B5074B19684A7E002A04D030
:10270000054B02201870002002E000F0CBFC0120F5
:1027100008BDC046F80200203803002008B500F0CC
:10272000C9FC08BD08B5074B19684A7E002A04D0C9
:10273000054B02201870002002E000F0A5FC0120EB
:1027400008BDC046F80200203803002008B500F09C
:10275000A3FC08BD08B5074B19684A7E002A04D0BF
:10276000054B02201870002002E000F0A9FC0120B7
:1027700008BDC046F80200203803002008B500F06C
:10278000A5FC08BD08B50B4B19684A7E002A04D089
:10279000094A0221117000200AE0002805D0012812
:1027A00003D0054B0E201870F5E700F05BFF012009
:1027B00008BDC046F80200203803002008B500F02C
:1027C00057FF01384342584108BD08B50A4B196804
:1027D0004A7E002A04D0094A0221117000200AE032
:1027E000002805D0012803D0044B0E201870F5E70F
:1027F00000F050FF012008BDF8020020380300203F
:10280000F8B51E4D00241E4E071C281C211C0C224E
:10281000083034706C60FDF707FD1A4800F048FE80
:102820002860A04203D101203070002024E0164B24
:10283000181D1968FFF7EEFD051C381CFFF7BCFDDD
:102840000540042000F0EEFB201CFFF79BFFEFB2D9
:1028500007400120FFF7D4FE07400220FFF7A2FE49
:102860000740201CFFF7B1FF041C01203C4000F092
:10287000E7FE002CD7D00120F8BDC046F8020020AA
:1028800038030020FF2800006400002008B500F095
:1028900007FF01384342584108BD024B0022DA606D
:1028A0007047C046F8020020014BD8687047C04608
:1028B000F8020020044B002200B51A72904202D0A8
:1028C00018610120187200BDF8020020014B187831
:1028D0007047C04638030020014B00221A70704731
:1028E00038030020014B58687047C046F8020020AA
:1028F000014B00225A607047F80200207047F0B583
:1029000089B0040C031C060A84460190101C039233
:1029100097B2020C0D1C002002910092E1B26246B7
:1029200006AC069060600590D0B21B0EF6B205288A
:1029300054D802F0DFFA03142943403D6A4649B2F5
:10294000484223701388E080281C6780A38000F031
:102950006FFA301C06996268FEF774F941E022496B
:102960000B68587E002802D1204801F043FF281C44
:102970006D4600F05DFA67802F88301CA7800699AD
:102980006268FEF7DBF92CE048B205AC42422370E6
:102990006280002B07D0002D02D1154801F02AFFDC
:1029A000281C00F045FA301C0599FEF7D2F918E012
:1029B000FEF7D9F915E0FFF7A1FF12E00A4DE9682B
:1029C0002B7A0131E960002B0BD02F69002F02D147
:1029D000FFF702FC05E0013F2F6102E0054801F02E
:1029E00009FF09B0F0BDC046F8020020B50305009C
:1029F000C3030500E3030500024B03490F221A70CD
:102A00004860704738030020F802002000B5064AED
:102A100001231178022903D05068421E904100E042
:102A2000181C1840C0B200BD3C03002008B5FFF7D9
:102A3000EDFF044B044A002801D0D06800E0906804
:102A4000186008BD100300207403002008B5044B73
:102A50005A68002A01D0013A5A60FFF7E7FF08BD23
:102A60003C03002010B500231A1C041C1C4101214A
:102A700021400724E41AA1400A430133D2B2082BB3
:102A8000F3D1101C10BD70B50024061C251C301C91
:102A9000E040C0B2FFF7E6FF1823191B8840083456
:102AA0000543202CF3D1281C70BD38B50D1C01F056
:102AB00071FE084C63699D4202D8074801F09AFEF6
:102AC00060690122291A054802F058F90021616164
:102AD00038BDC0463C0300204D060900D547000024
:102AE00007B5A12303210F4A8B40D15001F094FD7B
:102AF000002815D002280AD9032811D100230093F9
:102B00000193181C191C1A1C01F09EFC03E0002004
:102B1000011C01F035FD042802D0034801F06AFED3
:102B200007BDC04600F00140E801090008B501F00A
:102B300027FFA1230E4AD900505001F06DFD012856
:102B400007D001F069FD022802D00A4801F052FEC8
:102B5000002001F0B9FA02F093F9074BA221CA0054
:102B600098500648064AC1684868985008BDC04653
:102B7000001000401E06090000F001401003002074
:102B80001405000008B502F0EDF801280FD002F09E
:102B9000CDF8074B187F002803D180210122CB05F7
:102BA0005A60002001F0F6FD024A0020506008BD86
:102BB000740300203C03002010B501F06AFD0028DA
:102BC0001AD00E4B00229A81DA8101F0C5FB0C4C21
:102BD0000C49605001F0C0FBA62201238340D100C4
:102BE000635001F0BFFB084C206001F0C1FB074BB4
:102BF0006060E360FFF79AFF10BDC0463C03002011
:102C0000001000402C05000058030020B52C0000E7
:102C100008B502F0A7F8012822D101F0D5FD00285F
:102C200002D0104801F0E6FD1E210F48002202F0FC
:102C3000A5F80E4B197F002902D002F06BF80FE0C7
:102C40000B480C4B0122026059608021C8050260CC
:102C5000C046C046C046C0465A68002AFCD0ECE7D1
:102C600008BDC0462C060900D547000074030020AB
:102C700014050040FC0000401FB5FFF783FF01F082
:102C8000D9F80A4A002301A80521017043601C1CE1
:102C90000381438143708370C3709370537601F056
:102CA0009DFA03480470FFF71BFF1FBD3C03002083
:102CB00070030020F0B53E4B8022D000195887B039
:102CC000012904D03B4C00261D59B54206D13A4E8D
:102CD0002022776800263B789A427641374C0125BE
:102CE00061692E40281C002901D102F041F82842D8
:102CF00001D10120606101F08FFC012802D0304831
:102D000001F078FD2F4DEF683B7D002B02D02E485F
:102D100001F070FD01F08EF8002E47D00120011C5B
:102D200001F02EFC042836D802F0E4F80332183201
:102D3000320001F017FBE289071CA689019201F01D
:102D40000BFBE9686D46897D0497AF8803AB0022D1
:102D50001A701E815F815870997014E001F002FBB7
:102D6000071CE089A689019001F0F6FAEB686D4630
:102D70009A7D0497AF8803AB00219A7019701E8169
:102D80005F8158700122DA70181C01F027FA02E006
:102D90000E4801F02FFD01F019FE0D4E2061706903
:102DA0006060FFF743FE002001F016FE07B0F0BDA3
:102DB0000010004034050000580300203C030020B0
:102DC000A806090010030020A9060900C80609008A
:102DD00074030020704708B5012282F31088074B66
:102DE000597E002905D09878002802D19A70FFF703
:102DF0000FFF002282F3108808BDC0463C0300206C
:102E0000024B0120597E48407047C0463C030020D9
:102E1000014B18787047C0463C03002008B50123D9
:102E200083F3108801F094FC002181F3108808BD21
:102E300008B5012383F3108801F08EFC002080F395
:102E4000108808BD08B5012383F3108801F0EAFB60
:102E500000280DD008488278002A04D1417E00293C
:102E600001D0FFF7D5FE002383F31088012001E095
:102E700080F3108808BDC0463C03002008B501233C
:102E800083F3108801F0F6FB002181F3108808BD60
:102E900008B501F0EAFB08BD08B5012383F31088EB
:102EA00001F0D3FB002181F3108808BD08B501F0C3
:102EB000D8FB08BD08B501F0E7FB08BD08B501F077
:102EC0004FFC08BD10B50123041C83F3108808488B
:102ED0000278002A05D0417E002902D0054801F081
:102EE00089FC201C01F0B5FB002484F3108810BD80
:102EF0003C030020FB02090008B5012383F310887E
:102F000001F0BDFB002080F3108808BD08B5044B1C
:102F10001862FFF7B8FD0349034A505008BDC04688
:102F2000740300201C05000000100040014B186ACB
:102F30007047C0467403002008B5044B5862FFF781
:102F4000A2FDA421024ACB00D05008BD740300208A
:102F500000100040014B586A7047C04674030020BF
:102F6000F8B5031C081C072B1AD80F4A03261E406D
:102F7000D118F600FF24B4402831E74308700B4C09
:102F8000032B01D80A4D01E0A525ED0063591F4030
:102F90006751FFF767FD6759B0400743675102E08B
:102FA000044801F027FCF8BD740300200010004025
:102FB000240500003903090010B5041E072C02D9AE
:102FC000034801F017FC034B18192830007810BD96
:102FD000410309007403002038B5051C0C1E02D102
:102FE000074801F007FC002D02D1064801F002FC61
:102FF000054B00209D605C6001F0D6FC38BDC046EA
:10300000480309004903090010030020014B5861DF
:103010007047C04674030020014B58697047C04692
:1030200074030020064B074AA32110B55877CB0044
:10303000D4580104044820400843D05010BDC04675
:103040007403002000100040FFFFF8FF014B587F81
:103050007047C04674030020014B18617047C0469A
:1030600074030020014B18697047C04674030020A8
:10307000014B58607047C04674030020014B5868EC
:103080007047C0467403002008B5024BD860FFF7B4
:10309000CDFC08BD74030020014BD8687047C046C2
:1030A0007403002008B5024B9860FFF7BFFC08BD11
:1030B00074030020014B98687047C04674030020D9
:1030C000014B58837047C04674030020014B588B56
:1030D0007047C04674030020034B0449044A303350
:1030E000187050507047C046740300200C05000053
:1030F00000100040014B30331878704774030020F3
:10310000184B10B531331870174A184BFF249958D3
:10311000A1439950032821D8995801F0EBFE1D02D4
:103120000A140124214399501149FF205850114994
:1031300006E00220014399500F490D4A99500F496A
:10314000A722D20008E00324214399500C480849E3
:10315000A7225850A2400021995002E0094801F0EE
:1031600049FB10BD7403002034050000001000402E
:103170003C05000007010000FFFF000021100100D6
:10318000FFFFFF00C2030900014B3133187870477D
:10319000740300201F4B00B532331870012821D072
:1031A000002810D0022834D1A2211B4ACB00D050D5
:1031B0001A491B481B4A08601B4B1C481C491A60D3
:1031C00008601C4A20E0A223134AD9005050134B38
:1031D0001348154A186013491748154B11601860B9
:1031E000164A11E0A2230C4AD90050500B4B0C4850
:1031F0000C490D4A186011601148124A0C4B1249D3
:1032000018601160114A02E00E490A60104A114824
:10321000026000BD7403002000100040241700402D
:10322000005000784E0000542817004008800C60C1
:103230002C1700408864720003800C6022647200C6
:1032400002800C603017004011646600DEC08F827F
:103250003E420F8234170040F8B5A122334C344B64
:10326000344E354DD000002703210122F750315054
:1032700067516251E05831490F220140E150E55851
:10328000062095430543E550E1582D4DC02290029C
:103290000D400543E550A323DD006159294A8023F1
:1032A0000A40625160595904014361516059FF223B
:1032B000904320231843605161592348C02208409D
:1032C0006051224853000221C15001F0D5FD204930
:1032D000204A70507251204D032373511F4800F053
:1032E000E1FD1F4E1F4DF060687FFFF79BFE286ACF
:1032F000FFF70CFE686AFFF71FFEE8192830017817
:10330000381C0137FFF72CFE082FF6D12F1C303761
:103310003978154AA1502C1C313420783235FFF70A
:10332000EFFE2878FFF736FFF8BDC04600100040DA
:103330001405000000F00140FC0F0000FFFEFFFF3D
:10334000FFFFF0FFFFFFFFFDFF00FFFF00E100E0D8
:103350001C05000004110040040500005803002073
:1033600010030020740300200C05000070B5274EE8
:1033700086B0337872789A4245D0002B01D1FFF79E
:103380006BFF7078002801D1FFF7AAFB2049214D7F
:1033900000246C5000F04EFD1F4D2C606C602C61C1
:1033A000AC60EC603378012B08D101F035F9A04214
:1033B00017D0201C211C01F0E3F812E0022B10D1E1
:1033C00000F038FD154A2C61147001F025F903282E
:1033D00007D100940194201C211C221C231C01F005
:1033E00033F8FFF723FB70780024307003A804261D
:1033F000067044600481448144708470C47000F09D
:10340000EDFE012000E0002006B070BD3C0300206E
:103410001405000000F00140580300207003002054
:1034200008B5012383F3108808490A78824208D03E
:103430004870487E002802D1FFF798FF01E0FFF7AF
:10344000E7FB002383F3108808BDC0463C0300203F
:1034500038B5124B5A7E1C1C002A1DD1FFF7FCFE0A
:103460000F488168051C002902D10E4801F0C2F9FD
:103470006B68002B02D10C4801F0BCF901F098F9FF
:10348000002802D0094801F0B5F9002001F082F9C6
:1034900001226276FFF7BCFB38BDC0463C0300202A
:1034A000100300205E0209005F02090066020900A5
:1034B000F8B5071C012080F31088544D544B554E2D
:1034C0000024002203211C605C609C60DC601C61A5
:1034D0001A7529702A766A76B46074606870AC7068
:1034E0006C60AC60AC81EC812C616C6101F0D6FB4E
:1034F000381C00F059FE00F0F5FE201C01F042F9E6
:10350000301C01F07BF9444FC2208300F958434A34
:10351000C0260A40FA50B0003B584149C522194024
:1035200039509600BB59FF20402183430B43BB51C8
:103530000120FFF775FF3B4E3B4B3C48311C33628B
:10354000706228310123301C0B7029300223311C9A
:1035500003702A3103200870FF22311C32612B31A5
:1035600004220A707277321C2C3205201070321C33
:103570002D320621301C11702E3007220270301CB3
:103580002F300821321C0170303200201070321CA4
:103590000120311C32321070313196229A400B706A
:1035A0001E2171617260F360FFF740FA0F23B36070
:1035B000FFF73CFA01207483307670760021201CDE
:1035C0006924317701F0D0F834606E780124A64286
:1035D00002D0174801F00EF900262C70AE706E6014
:1035E000AE60AE81EE812E616E612E766E76FFF753
:1035F00033FEC023802180225800CC0053033C506E
:103600003B5086F31088281CF8BDC0463C030020C0
:10361000580300201003002000E100E0FFFF00FF3E
:10362000FF00FFFF7403002004070A0D05080B0EBE
:103630003C020900014B32331878704774030020B4
:10364000054B10B5041CD868002802D1034801F0CE
:10365000D1F803490C7510BD10030020F6030900D2
:1036600058030020014B18767047C04674030020B1
:10367000014B187E7047C04674030020014B5876FA
:103680007047C04674030020014B587E7047C04607
:1036900074030020014B18777047C0467403002064
:1036A000014B187F7047C0467403002008B501F035
:1036B0005BF808BD08B50B4BD868417D002906D0E2
:1036C000012000F05BFB084B9A8901329A8107497F
:1036D000074B084A0020585051681368C91AFFF771
:1036E000E4F908BD100300203C030020140500008D
:1036F00000F0014074030020084B10B51A781C1C20
:10370000012A02D0064801F075F80649064A02204F
:10371000002320700B61CA6010BDC04670030020FA
:103720009205090058030020C937000010B500F0C9
:1037300081FB194819491A4C0023012202702361A8
:103740000869A623174AD900505000F065FF0028E9
:103750000AD100F075FD01280DD900F00FFE606060
:10376000002808D1104804E000F056FF032802D0DA
:103770000E4801F03FF8022000F0A6FC002000F007
:10378000FDFA00F049FF032802D0094801F032F8A1
:10379000FFF7B2FF10BDC046700300207403002085
:1037A00058030020001000407B0509008005090037
:1037B0008805090008B5034B05221A70FFF7B6FF0C
:1037C00008BDC04670030020F0B5484A8023D800E9
:1037D000115887B0464C012904D0464D0023565954
:1037E0009E4205D1676800233978202088425B41DA
:1037F000414E032500210127357021603B408B425B
:1038000055D08123D80015583C4B11583C48D15015
:1038100002A912583B1C00910194381C291C00F08D
:1038200013FE032841D801F065FB1E02204E0298CA
:10383000002802D0334800F0DDFF281C00F024FFF0
:10384000002802D1304800F0D5FF304903A8CF68E6
:103850000223B97D0027037047603A1C0781478126
:10386000457081701DE02A482BE0029A002A02D19F
:10387000284800F0BFFF281C00F006FF002802D1F6
:10388000254800F0B7FF214F03A8FB68029F997DF0
:1038900002220023027047600381438145708170DA
:1038A0000122C27000F09AFC0DE01C4809E0009370
:1038B0000193181C191C1A1C00F0C6FD042802D024
:1038C000174800F097FF2568002D06D100F0B2FAE6
:1038D00065752561FFF72AFF05E012480122627530
:1038E00020610424347007B0F0BDC04600100040D1
:1038F0005803002034050000700300202C05000050
:103900000C040000B8050900B905090010030020E7
:10391000BD050900C0050900C1050900C805090069
:10392000CF050900B537000070B50C4DA124E400A7
:103930002E5901F025F886420AD001F021F82851CD
:10394000FFF7F4FE064900204968FFF7AEF870BDA6
:10395000044B18780028F3D0F4E7C046001000406C
:103960007403002070030020F0B5864C01256369C4
:1039700089B0281C002B01D101F0FAF9012628405A
:1039800000D0D3E02178B14202D100F04BFA10E030
:10399000022908D000F042FFFFF758F8A678002E61
:1039A00000D0A9E00EE0784A1378033BDDB2AE42C6
:1039B00040410028EED0754E75487768012279089D
:1039C0006161CBE0FFF7D2FC704D071E00D08EE0A6
:1039D00020780190061E012E06D0002863D0022810
:1039E00065D1FFF7A1FF65E000F024FA00F014FEB6
:1039F00000281DD100F024FC012851D9FFF706F85A
:103A0000071E0CD000F0FAFF002849D1287E0028BC
:103A10000BD100F0DBFF2669B04241D105E02069FF
:103A200000F0C2FF381C00F0D7FFFFF7C5F837E001
:103A3000698B002920D0A2898A421DD3311C381CF1
:103A400000F09EFD00F08EFC0290A2890392E689B0
:103A500000F082FC69460A79029905AB1A7006915A
:103A60000C226946515A5870181C19815E819F704A
:103A7000DF7000F0B3FB13E001F07AF9002802D008
:103A8000444800F0B7FEA1234348DF00C65900F0C8
:103A900077FF864202D0E1890131E181FFF746F8E4
:103AA0000120296800E06968FEF7FFFF02E03B485B
:103AB00000F0A0FE6D7E012D23D1FEF7A7FF0028A8
:103AC0001FD12478012C07D0002C0DD0022C18D047
:103AD000334800F08FFE14E000F09EFD002810D166
:103AE00000F034FC00280CD1FFF74CF809E06968BD
:103AF000301CFEF7DAFF04E0647E002C01D0FFF7F3
:103B0000BBF800F09DFB01280CD905A80021032378
:103B1000037041600181418141708170C17000F08A
:103B20005DFB2DE01F4800F065FE29E0FEF78EFFEB
:103B3000A778002F1DD12178022912D1124B1D78B0
:103B4000033D012D04D900F069FEFFF7EDFE17E0FB
:103B50000E4F321C786841080D48616101F00EF982
:103B60000EE000F05BFE094A381C5168FEF79DFF2D
:103B700006E000F053FE607E002801D0FFF77CF8DD
:103B800009B0F0BD3C030020700300207403002046
:103B9000D54700000A05090000100040580409003C
:103BA000720409008C04090007B50190C046C046A4
:103BB000C046C046C046C046C046C046C046C046D5
:103BC000C046C046C046C046019B013B0193002B46
:103BD000ECD107BD70B58022164B910000245C50DB
:103BE0001549C2250E78AD00144A032E07D10926C7
:103BF0007442C1265C510825B4001D510AE001261B
:103C000076425E51C0230E4D02265B00EE501461D9
:103C100003244C7000235360536193604B600B7519
:103C2000984205D0074801680A69002A00D09047E9
:103C300070BDC04600100040A8030020FC100040EA
:103C400000E100E020030020F8B53F4B1A69012A8B
:103C500053D19D693D4C80229600013503210420FB
:103C60009D611870C025A15139496A0002278F5003
:103C7000384F00263E61C1227E607E61BE60364EB6
:103C800008259100655035682A7D3D1C002A17D013
:103C9000A927F9006258314F9A75A023D9007A58A4
:103CA000024202D12E4800F0A5FD00200123A122EE
:103CB00028620421A361D300F950A927F9006050BC
:103CC0006868002802D0274800F094FD2D69002D77
:103CD00002D0254800F08EFD244A536899072DD460
:103CE0003768F968002900D088473668707D002859
:103CF00028D035681E4AA55024E0022A1AD1154959
:103D000000250D6111484D6180244D6001278D60B3
:103D1000C221A6007A428C0085511D7002510320F9
:103D200058705D601D750C4B1E683769AF4209D035
:103D3000B84707E00F4800F05DFD03E00E4800F0D3
:103D400059FDCDE7F8BDC046A80300200010004093
:103D500000E100E0FC1000402003002000F00140E2
:103D6000AD020A00B6020A00B7020A00FCE100E058
:103D700004050000E7020A00B8020A0070B51E4DF3
:103D8000061C6B7D6C78002B02D11C4800F032FDC4
:103D9000287D002802D01A4800F02CFD01220021C5
:103DA0002A756975022C0CD816482301C318002EF9
:103DB00001D11E683260621E012A05D8997A2970E5
:103DC00002E0114800F016FD104D2868037D002B1D
:103DD00011D0022C0FD10E4C0E4E251C3259530718
:103DE00002D40D4800F006FD0C494859002802D1C4
:103DF0000B4800F0FFFC70BDA803002021010A0061
:103E000022010A00705000003A010A00200300203D
:103E10000405000000F0014040010A0000100040CD
:103E200041010A00024B98680138434258417047EB
:103E3000FC100040F8B5164B164C02200121C0279B
:103E4000C222D8674D4282407B00134E8021134F1F
:103E5000A55081400025F050012265507D61104D34
:103E60002261A2612C78944201D1062003E0023C39
:103E7000012C00D9101C0024FFF796FE7C61201C49
:103E80002C70FFF7A7FE02206C753060F8BDC046AD
:103E900004E100E00010004000E100E0FC10004000
:103EA000A803002038B50E4B0E4C18600E490F4B7E
:103EB0000F4A0225201DC56799500E48A421CA004B
:103EC0009850FFF7B7FF0C4800230321037041709F
:103ED00043600361037543758375256038BDC04633
:103EE0002003002000E100E01410004000F0014039
:103EF0002405000004110040A803002070B55C4CAC
:103F00002369607D013365782361002802D0594818
:103F100000F070FC2178032948D1574E3269002AFD
:103F200044D0012D35D12269032A02D0534800F034
:103F300061FCA06902210130514A8025A061002363
:103F40008D400120217053514542C22088401550B8
:103F5000C02568004B4D29504B4933610968736097
:103F60007361B3600326667063602375087D9842B1
:103F70000DD0A925E80016580125A6753E4C04264B
:103F800023629561A124414DE4002E511350CA686B
:103F900065E0022D08D12369012B02D03C4800F0D6
:103FA00029FCFFF751FE61E03A485DE0032D5AD04D
:103FB000012D3CD12169012918D12F480021304B16
:103FC0000126C2224160816070429100C126585092
:103FD000B0001D502C4D304E2A68117D002902D0B2
:103FE0002A4D0420A851E4689C513FE002293DD1AC
:103FF000234E214A8023002598000221C223156107
:104000005561556035504A429800C12132508B00AD
:104010000822F25003262670656025751A4C256823
:10402000261C2869002800D08047306816E0022D41
:10403000B7D0657819482B01C1180E7B0025AE4218
:1040400003D00D4A15696A1E95418B7A01202370B1
:10405000FFF7C0FD002D09D00B4C20688268002AB4
:1040600004D0904702E00E4800F0C4FB70BDC0468B
:10407000A803002090010A00FC1000409F010A00E4
:104080000010004000E100E02003002000F00140AB
:10409000A4010A00A9010A000405000070500000F4
:1040A000D6010A0008B5022804D8054B1878434207
:1040B000584103E0034800F09DFB002008BDC046C6
:1040C000A8030020F9020A00F8B52B4C0301061CD6
:1040D0002A4F207DFF18002802D0294800F08AFBD3
:1040E000301CFFF7DFFF002802D1264800F082FBDA
:1040F0000121C222244D0023484291006375C02251
:104100006850224902205200885021486670026897
:10411000116852682361A3613B68A160E26063603B
:10412000022E18D8387A80239B00E850F87A194B71
:10413000002805D1E950EA58002A08D1164804E0C1
:10414000EA50E958002902D1144800F053FB7F7A65
:10415000C1208300EF500E4D29680A7D002A07D048
:10416000022E05D10B480E4B00260427A6751F50C2
:1041700001256575F8BDC046A803002070500000F9
:10418000DB000A00DD000A000010004000E100E052
:10419000200300200405000000010A0005010A00B8
:1041A00000F001407047C04610B5041E02D1084817
:1041B00000F020FB074B00221C60191DDA67083352
:1041C000CA678020DA67044B44031C6010BDC046F8
:1041D00029000B00CC03002000E100E070B5144C76
:1041E000051C2368002B02D1124800F003FB201CA1
:1041F0000830C16F092902D90F4800F0FBFAE66FB9
:104200000C225643A319043343CD43C3251C083560
:10421000E86F0130E867E16F0131E167E66F092E71
:1042200001D90022E2678024044B65035D6070BD04
:10423000CC03002034000B0035000B00FCE100E053
:10424000034B0A200833D96F421AD0B27047C046D8
:10425000CC030020F0B587B0012383F31088134C02
:10426000124D0834E06F00281BD02A1DD16F0C2698
:10427000714303AB69180431181CE0C9E0C0E76F53
:104280000026013FE767D46F0134D467D56F092D4D
:1042900000D9D66786F31088044A176807CBB84759
:1042A000DAE780F3108807B0F0BDC046CC030020E9
:1042B00038B50A4C051CE36F002B02D1084800F00A
:1042C00099FA291C0831E06F00F03CFC002188427B
:1042D00001D0E1670121081C38BDC046540400200C
:1042E0006F020C0010B500F0B7FB0021124A8800E5
:1042F000002384188818A361A363041C80348830C9
:10430000237003700D480C18013123700829EDD17A
:10431000111C101C141C90319130583413705360D0
:104320009360D360136153610B7003702370D36784
:1043300092320123137010BD54040020E8040020C1
:10434000014B185C7047C046E8040020014B9033D5
:104350001878704754040020014B58687047C046D5
:1043600054040020014B98687047C0465404002054
:10437000014BD8687047C0465404002010B5104C5B
:104380002378002B02D00F4800F034FAE06F0028A9
:1043900002D100F08BFBE067E06F00280FD0012115
:1043A00043784A4206210B43437002700023C2182F
:1043B000FF2101339170202BF9D10323237010BD0D
:1043C000540400203B010C0038B5124C2378002B1C
:1043D0001ED1201C90300178002919D10825606970
:1043E00000F028FC002805D0231C606990330122CE
:1043F0001A70206161690131082900D10021231C54
:10440000616190331A78002A02D1013D002DE6D176
:1044100038BDC0465404002038B5094D041C2B1C7F
:1044200090331878002804D02969A14201D1FFF700
:10443000CBFF2A19034B0025803215701D5538BD5E
:1044400054040020E8040020F0B5464D85B00393E5
:10445000EB6F061C0C1C171C002B02D1424800F00D
:10446000C9F92878032802D0404800F0C3F9E96F61
:1044700001234A781A4202D192352D786B400425E7
:10448000002E61D050070126810F1E40251C231CE1
:104490000A0608330E353F023249A8003F0A02934C
:1044A0000B5817430B980A9A0025156005609F4228
:1044B00033D0201CFFF7FCFE0190AE4200D0051C5B
:1044C00001232E1C1E40002828D00299254A0631BF
:1044D00088008750039F1D1C002F20D0244F3B5D78
:1044E000002B1CD0201C00F0A5FB002802D1214885
:1044F00000F080F9201C00F05BFB051E02D0201CA0
:10450000FFF78AFF0A990D60002D02D11A4800F0CA
:1045100071F900203855022501E001950325002E90
:104520000DD0201C00F06CFB0B9E3060002802D1E7
:10453000124B336005E00E4F01223A5501E00B9C0F
:1045400026600199002905D1064CE06F00F0CCFAF5
:104550000020E067034A00261670FFF735FF281C8D
:1045600005B0F0BD540400205B010C005C010C00A0
:10457000E804002091010C0096010C00AC0400201E
:10458000F8B51F4C071C23780E1C013B012B02D9E8
:104590001C4800F02FF90425002F19D0207801289D
:1045A00002D0194800F026F9E268002A02D1174823
:1045B00000F020F9E16800250F78AF4208D060686C
:1045C000FFF776FE0225002802D1114800F012F90B
:1045D000002E0ED06768381C00F0EAFA061E02D0E2
:1045E000381CFFF719FFA3689E4202D0094800F06B
:1045F00001F900202070FFF7E7FE281CF8BDC04637
:1046000054040020FC000C0002010C0003010C000B
:104610000E010C001E010C00014B18787047C046BB
:104620005404002038B5041C0D1C00F013FB0028B6
:1046300001D1002008E0281C211C00F083FA00288A
:10464000F7D0FFF7C1FE012038BD08B500F0D8FA59
:1046500008BD10B5041CFFF7DFFE201C00F000FBB6
:1046600010BD08B500F0E6FA08BD08B5083000F046
:10467000C7FA08BD08B5083000F09AFA08BD08B5B9
:10468000083000F0EDFA08BD08B5083000F0D2FAA5
:1046900008BD10B52A4C2378002B02D0294800F021
:1046A000A9F8201C90300178002927D0206960608B
:1046B00000F0A6FAA060002802D1234800F09AF882
:1046C000A26801235078034004D1211C92310A785A
:1046D000002A10D16068FFF7D7FF02280ED8E36FD9
:1046E000002B02D100F0E2F9E067E16FE160002900
:1046F00004D0012001E0E360022020702278002035
:1047000082421BD0A368834202D1104800F072F8A5
:1047100020696060063081006318DA780321013275
:10472000D0B2D870A36808405A784100062082436E
:104730000A435A70903400232370012010BDC046F4
:1047400054040020C3000C00C9000C00E7000C005A
:1047500008B500F0ABF908BD08B500F0C5F908BD13
:1047600008B500F077FA08BD014B92331870704716
:1047700054040020014B92331878704754040020F1
:104780007047C046024B9870587018707047C0460A
:10479000F004002010B5041E012C02D9024800F0DC
:1047A00029F8024B5C7010BD2A000D00F0040020B7
:1047B000014B18787047C046F0040020014B9878F0
:1047C0007047C046F0040020014B58787047C0463F
:1047D000F004002008B5054B1A7858789A701870C4
:1047E000034B8100CA58904708BDC046F004002022
:1047F0007800002008B5FEF7FFF808BD10B5041ECC
:1048000002D10448FFF7F6FF034B00221C605A60F8
:104810009A6010BD2A00010024030020094B00B556
:1048200018689A68016801329A608A4208D3596808
:104830004068002201319A605960814200D35A6079
:1048400000BDC04624030020F8B500282AD0164C2D
:10485000A36801280ED1276801333A68A360934208
:1048600020D36068796800250130A56060608842C7
:1048700018D316E02668C7183568A760381C291CAD
:1048800000F042FB62683B1C80186060AB4201D3C1
:104890005B1BFBE771686568A3608D4201D36D1AED
:1048A000FBE76560F8BDC04624030020024B1A6890
:1048B00099681068401A70472403002070B50D4DA8
:1048C000041C2B685868844202D30B48FFF792FF00
:1048D0006E68B4420CD002D829684A68A418FFF761
:1048E000E5FF2D68F3432E6819197143081800E09D
:1048F000002070BD240300206800010070B5041C76
:104900000D1C884202D30B48FFF774FF0A4E336830
:104910001868854202D90948FFF76CFFB168601A30
:10492000A14206D30020A94203D3326815686E1A4B
:10493000301970BD7D000100240300207E000100BD
:1049400038B5041C101C0D1CFFF7B8FF002801D05F
:10495000001911E0201C291CFFF7D0FF041CFFF7F1
:10496000A5FF031C201E984206D304490D686A68FF
:104970002C68013A5443001938BDC0462403002076
:10498000074B10B51A68596850681C1C814202D345
:104990000448FFF72FFF236861689A68505C10BDD8
:1049A00024030020B200010038B5064B041C1A682D
:1049B0001D1C5068844202D30348FFF71BFF6C6044
:1049C00038BDC04624030020B9000100014B5868DF
:1049D0007047C0462403002038B5064B041C1A68F3
:1049E0001D1C1068844202D30348FFF703FFAC602C
:1049F00038BDC04624030020C5000100014B986863
:104A00007047C0462403002010B50F4B1A680023DE
:104A100093420BD20D499C006458A04203D10C482C
:104A2000FFF7E8FE0CE00133DBB2F1E700242222BD
:104A3000624308495318984204D00134062CF6D139
:104A4000002000E0012010BDF4040020F804002044
:104A5000F60003000006002010B500220F495000A8
:104A6000801800230C1801326370A3704354102A7D
:104A7000F4D122225A430A490A485418211C9A00A8
:104A800084502231DE22227001348C42FAD101336B
:104A9000062BEED1044C236010BDC046100500204B
:104AA00000060020F8040020F404002038B50A4B6A
:104AB0001C68002C0ED0621E084990004458084D16
:104AC0001A604550201CFFF79FFF002802D10548BF
:104AD000FFF790FE201C38BDF4040020F8040020ED
:104AE000ADDEADDE7D00030070B5104C051C236803
:104AF000052B02D90E48FFF77DFE281CFFF784FF27
:104B0000002802D10B48FFF775FE21680A488A0089
:104B100011580A4B061C994202D00948FFF76AFE59
:104B2000206882000130B550206070BDF404002080
:104B30008500030086000300F8040020ADDEADDE32
:104B400088000300F8B5051C0C1E0F2C02D9144870
:104B5000FFF750FE281CFFF757FF002802D111482D
:104B6000FFF748FE104966003019435C0022022B13
:104B700013D80B185F78C0190C4F8000C5515D78B1
:104B80000135E8B258705F78022F00D95A70321997
:104B90008C5C0134E6B28E540122101CF8BDC04674
:104BA0008F00030090000300100500204005002046
:104BB00038B5041E0F2C02D90E48FFF71BFE0E4A13
:104BC00065002919885C002813D0531898780918B3
:104BD0000A488900085899780131C9B299709978C2
:104BE000022901D9002199702C19155D013DEBB204
:104BF000135538BDA6000300100500204005002015
:104C000010B5041E0F2C02D90748FFF7F3FD074B20
:104C100062001119C85C002805D0581884780B1957
:104C200003499A00505810BDB7000300100500203A
:104C30004005002010B5041E0F2C02D90348FFF7D1
:104C4000D9FD630002491819405C10BDC80003007B
:104C500010050020014B18687047C046F40400207E
:104C600038B5051E0F2D0CD90948FFF7C3FD08E024
:104C7000084B9C4202D10848FFF7BCFD201CFFF7FF
:104C800033FF281CFFF794FF041EF1D138BDC04646
:104C9000D7000300ADDEADDEDB000300164BA12123
:104CA00010B50122CC0000205A60DA6018515A6415
:104CB000124A1C1C9958814202D01148FFF79AFDF4
:104CC0000123C222584291000E4B60500022A221C3
:104CD0005A640420CB00E0500B490C4C01202260A8
:104CE0002271627108700A4B8022C021D400814079
:104CF0005C501C6010BDC04600A000404405000090
:104D000035000400FCA00040CC0600203003002049
:104D100000E100E0034B0449012200201A60087002
:104D20007047C04600A00040CC060020094A30B5BC
:104D300001235360084CD3608025084AC02000211D
:104D4000ED0098401160117125505171044A1370A3
:104D500030BDC04600A0004000E100E0300300206C
:104D6000CC060020014B18787047C046CC060020C6
:104D7000014B18797047C04630030020F7B5334F18
:104D80000092334C8022C2237E790191051C990048
:104D900050026050002E02D02E48FFF72BFD002D50
:104DA00002D12D48FFF726FD3A68002A02D02B4891
:104DB000FFF720FD3D60009D294E012D0DD0002DF7
:104DC00003D0022D0DD1A92208E00120254B009926
:104DD0006064E5582064716407E0A822D500655935
:104DE00003E02148FFF706FD002501227A71019FAB
:104DF000A821E81987B20023C800736427502758F8
:104E000000976264174AA758716C1E1C994202D021
:104E10001648FFF7EFFC009BAB4205D3AF4201D32E
:104E20009F420CD3124808E0301CAF427041009DF5
:104E3000AF427641B04202D00E48FFF7DBFC802241
:104E4000C12157028E00A751F7BDC0463003002094
:104E500000A0004073000400750004007600040008
:104E6000FCA0004044050000890004009B000400F1
:104E7000B0000400C90004000048704748A000408A
:104E80000048704740A1004070B58022134C144D7B
:104E9000C22350029900002668506664114C2268B3
:104EA000B24202D11048FFF7A5FC104B01216671F8
:104EB0002068A82226606964EE58D300EA580C4D99
:104EC0001432AE4203D8C0231D02AA4202D80021E8
:104ED000964249412171804770BDC046FCA0004008
:104EE00000A0004030030020EC0004004405000056
:104EF000FF3F000002B4714649084900095C4900BF
:104F00008E4402BC7047C046002934D001230022E1
:104F100010B488422CD301242407A14204D2814238
:104F200002D209011B01F8E7E400A14204D2814248
:104F300002D249005B00F8E7884201D3401A1A43C5
:104F40004C08A04202D3001B5C0822438C08A042FC
:104F500002D3001B9C082243CC08A04202D3001BB2
:104F6000DC082243002803D01B0901D00909E3E72C
:104F7000100010BC704701B5002000F00BF802BD16
:104F80000029F8D003B5FFF7C1FF0EBC4243891AD0
:104F90001847C0467047C04630B500240139A242C8
:104FA00001D1002005E0035D01340D5DAB42F6D078
:104FB000581B30BD002310B59A4200D110BDCC5C07
:104FC000C4540133F8E70000F8B5C046F8BC08BC8B
:104FD0009E467047F8B5C046F8BC08BC9E46704770
:104FE0000000002000B000400B0004000010014051
:104FF00011010400FF0F030000001F000302000066
:10500000656E6372797074696F6E206B65790000EC
:10501000656E6372797074696F6E206E6F6E636512
:10502000000000004D4143206B657900993FFC88EA
:10503000BF214490F02B532E02FF7EC5A909B09DDD
:10504000364DC240EB37CB13F3B3E641FFE55DCC01
:105050007BCE111FB3B6E87EA381E049B8E24C07CE
:105060005267CCB0D4B3B955EA93672C0102000063
:10507000001000401011004003100000010000006B
:1050800000100040000000000B02040000000000BF
:1050900004100040000000000708030100000000A9
:0450A000000000000C
:0850A40064B0FF7F0100000071
:1050AC0000000000000000000000000000000000F4
:1050BC0000000000000000000000000000000000E4
:1050CC0000000000000000000000000000000000D4
:1050DC0000000000000000000000000000000000C4
:1050EC0000000000000000000000000000000000B4
:1050FC0000000000000000000000000000000000A4
:10510C00340100200500000004192A3F4D00000066
:10511C00000000000000000069390000B5360000F6
:08512C00E9000000C1000000D1
:040000030000215D7B
:00000001FF
